{
  "contractName": "Storage",
  "abi": [
    {
      "constant": false,
      "inputs": [
        {
          "name": "data",
          "type": "uint256"
        }
      ],
      "name": "set",
      "outputs": [],
      "payable": false,
      "stateMutability": "nonpayable",
      "type": "function"
    },
    {
      "constant": false,
      "inputs": [],
      "name": "get",
      "outputs": [
        {
          "name": "",
          "type": "string"
        }
      ],
      "payable": false,
      "stateMutability": "nonpayable",
      "type": "function"
    },
    {
      "constant": false,
      "inputs": [
        {
          "name": "a",
          "type": "uint256"
        },
        {
          "name": "b",
          "type": "uint256"
        }
      ],
      "name": "caculate",
      "outputs": [
        {
          "name": "",
          "type": "uint256"
        }
      ],
      "payable": false,
      "stateMutability": "nonpayable",
      "type": "function"
    }
  ],
  "bytecode": "0x6060604052341561000f57600080fd5b6101e78061001e6000396000f300606060405260043610610057576000357c0100000000000000000000000000000000000000000000000000000000900463ffffffff16806360fe47b11461005c5780636d4ce63c1461007f578063e9e2e69d1461010d575b600080fd5b341561006757600080fd5b61007d600480803590602001909190505061014d565b005b341561008a57600080fd5b610092610157565b6040518080602001828103825283818151815260200191508051906020019080838360005b838110156100d25780820151818401526020810190506100b7565b50505050905090810190601f1680156100ff5780820380516001836020036101000a031916815260200191505b509250505060405180910390f35b341561011857600080fd5b610137600480803590602001909190803590602001909190505061019a565b6040518082815260200191505060405180910390f35b8060008190555050565b61015f6101a7565b6040805190810160405280600b81526020017f48656c6c6f20776f726c64000000000000000000000000000000000000000000815250905090565b6000818301905092915050565b6020604051908101604052806000815250905600a165627a7a72305820c7cab210f11fe9f2266ed643348e4a80ae2ec082a978eb9b6166b0d831a84fd50029",
  "source": "pragma solidity ^0.4.10;\r\ncontract Storage {\r\n    uint256 storedData;\r\n    function set(uint256 data) public {\r\n        storedData = data;\r\n    }\r\n\r\n    function get() public returns (string) {\r\n        return \"Hello world\";\r\n    }\r\n\r\n    function caculate(uint256 a, uint256 b) public returns (uint256){\r\n        return a + b;\r\n    }\r\n}",
  "sourcePath": "D:\\baitap\\DoAnChuyenNghanh\\tutorial\\pet-shop-tutorial\\contracts\\Storage.sol",
  "compiler": {
    "name": "solc",
    "version": "0.4.19+commit.c4cbbb05.Emscripten.clang"
  },
  "schemaVersion": "2.0.0",
  "updatedAt": "2018-04-10T15:39:04.583Z"
}